S02000004156525F554152545F4D4F544F525F50524F4A4543545F452E7372656376
S11300000C944A000C945F000C945F000C945F0005
S11300100C945F000C945F000C945F000C945F00E0
S11300200C945F000C945F000C945F000C945F00D0
S11300300C945F000C945F000C945F000C945F00C0
S11300400C945F000C945F000C945F000C945F00B0
S11300500C945F007E0185018C0193019A01A0013B
S1130060A001A001A001A001A001A001A001A00184
S1130070A001A00107011C0125013801A001020112
S1130080A0014B01A001A001A001A001A001A001B9
S1130090A001500111241FBECFE5D8E0DEBFCDBFC3
S11300A013E0A0E6B0E0EEEBF3E002C005900D92A1
S11300B0A032B107D9F70E94BD000C94DD010C9465
S11300C0000010BC83E389B988E18AB986E880BD61
S11300D0089589E683BF85BD88E087BB0895FC0148
S11300E02081222339F031965D9BFECF2CB92191DA
S11300F02111FACF08955F9BFECF8CB1089584E05F
S113010090E064E058E040E130E220E865BB7FEF36
S1130110E0E7F2E07150E040F040E1F700C0000099
S113012055BB7FEFE0E7F2E07150E040F040E1F7CB
S113013000C0000045BB7FEFE0E7F2E07150E04013
S1130140F040E1F700C0000035BB7FEFE0E7F2E0EC
S11301507150E040F040E1F700C0000022BB7FEFA7
S1130160E0E7F2E07150E040F040E1F700C0000049
S113017012BA0197009751F60895CF93DF93CDB744
S1130180DEB72A970FB6F894DEBF0FBECDBF80E866
S113019084BF1FEF14BB81BB0E947F0088E085BB36
S11301A00E9461000E9469001CBF13BD212CAA2477
S11301B0A394B12CC12CD12C33243A940F2EF1EEFC
S11301C04F2EF02D0F2EF8EC5F2EF02D0F2EFFEAA0
S11301D06F2EF02D0F2EF6E97F2EF02D8E010F5F7E
S11301E01F4F80E690E04C0199240E947B0090E030
S11301F0FC01F197E032F10508F0A2C0E65DFF4F83
S11302000C94AA0186E890E00E946F0099C0822DA8
S1130210880F9A2D9460892B85BB21E0A216B10426
S113022011F4AD9A01C0AC9A80EA90E00E946F008C
S1130230CC24C394D12C84C088E085BB8DEA90E0A3
S11302400E946F00C12CD12C7BC091E0C916D1044F
S113025059F4E6E1E5BB8BEB90E00E946F002224A9
S11302602394A12CB12C6CC0C4010E946F0068C0FF
S1130270F1E0CF16D10459F425E225BB8EED90E0D0
S11302800E946F00212CAA24A394B12C59C0C4014C
S11302900E946F0055C08CEF90E00E946F0050C028
S11302A088E292E00E946F00F80101900020E9F7D3
S11302B03197AF01401B510B60E070E0C8010E9410
S11302C0CE01780105C00E947B00F70181937F0174
S11302D0F80101900020E9F7CF01049780179107F6
S11302E091F7C8010E94B0018F3F910509F044F5D0
S11302F0C8010E94B00183BD8CBF22C07CBE73BC08
S113030083E492E00E946F001BC06CBE63BC8FE666
S113031092E00E946F0014C05CBE53BC8BE992E073
S11303200E946F000DC04CBE43BC88EC92E00E945A
S11303306F0006C03CBE33BC85EF92E00E946F00A4
S1130340FFEF20E782E0F15020408040E1F700C059
S113035000004BCFEE0FFF1F0590F491E02D0994A0
S1130360FC0188279927E89421912032E9F3293068
S113037010F02E30C8F32B3241F02D3239F468944A
S113038004C00E94D501820F911D219120532A306F
S1130390C0F31EF4909581959F4F0895DC0101C030
S11303A06D9341505040E0F708957AE0979F902D67
S11103B0879F802D910D11240895F894FFCF9E
S11303BE4572726F72203A204669727374205475B6
S11303CE726E204F4E20546865204D6F746F7220EC
S11303DE2121210D0A0045766572797468696E676C
S11303EE204973204F4B202121212121210D0A0068
S11303FE4D6F746F72203A204F4E0D0A004D6F747C
S113040E6F72203A204F46460D0A004D6F746F727C
S113041E20446972656374696F6E203A20416E746C
S113042E692D436C6F636B776973650D0A004D6FAD
S113043E746F7220446972656374696F6E203A201A
S113044E436C6F636B776973650D0A000D0A7C2D1F
S113045E2D2D2D2D2D2D2D7C2D2D2D2D2D2D2D2D6B
S113046E2D2D2D2D2D2D7C0D0A7C2020436F6465A2
S113047E20207C20202020416374696F6E20202070
S113048E207C0D0A7C2D2D2D2D2D2D2D2D7C2D2DED
S113049E2D2D2D2D2D2D2D2D2D2D2D2D7C0D0A7C1F
S11304AE20202041202020207C20202020204F4E60
S11304BE202020202020207C0D0A7C202020422079
S11304CE2020207C20202020204F46462020202043
S11304DE20207C0D0A7C2D2D2D2D2D2D2D2D7C2DAA
S11304EE2D2D2D2D2D2D2D2D2D2D2D2D2D7C0D0A1E
S11304FE7C20202043202020207C416E74692D43D3
S113050E6C6F636B776973657C0D0A7C20202044C5
S113051E202020207C2020436C6F636B77697365E9
S113052E2020207C0D0A7C2D2D2D2D2D2D2D2D7C66
S113053E2D2D2D2D2D2D2D2D2D2D2D2D2D2D7C0DAA
S113054E0A7C20202046202020207C436865636B93
S113055E20436F6E6E6563746E7C0D0A7C2D2D2D9B
S113056E2D2D2D2D2D7C2D2D2D2D2D2D2D2D2D2D5A
S113057E2D2D2D2D7C0D0A00456E7465722050575D
S113058E4D2056616C756528302D32353529203A4B
S113059E0D0A0044757479204379636C65203A2002
S11305AE31392E3631250D0A4D6F746F722053700A
S11305BE656564203A2034302072706D0D0A004453
S11305CE757479204379636C65203A2033392E3261
S11305DE31250D0A4D6F746F72205370656564205A
S11305EE3A2037382072706D0D0A004475747920E4
S11305FE4379636C65203A2035382E3832250D0A3E
S113060E4D6F746F72205370656564203A203131DA
S113061E382072706D0D0A00447574792043796325
S113062E6C65203A2037382E3433250D0A4D6F74FD
S113063E6F72205370656564203A2031353720720D
S113064E706D0D0A0044757479204379636C6520CE
S113065E3A20313030250D0A4D6F746F722053706D
S113066E656564203A203230302072706D0D0A00B8
S9030000FC
